:02000000E928ED
:10000800FF00030E8301A5000A08A6008A017D08E7
:10001800A0000408A1000630A700A8010130A9002B
:100028000130AA00B020700803191F2822080130E7
:10003800031D0030A2000B112008FD0021088400D8
:0E00480026088A00250E8300FF0E7F0E090099
:0E005600293083120313FD00FD0B2F28080034
:0E0064008312031324088A0023088200080078
:1000720002308312031386062130FC007630FD0025
:10008200FD0B4128FC0B412800000430860621307C
:10009200FC007630FD00FD0B4C28FC0B4C280000C8
:1000A200083086062130FC007630FD00FD0B572813
:1000B200FC0B57280000103086062130FC007630F9
:1000C200FD00FD0B6228FC0B622800002030860632
:1000D2002130FC007630FD00FD0B6D28FC0B6D28F5
:1000E2000000403086062130FC007630FD00FD0B1A
:1000F2007828FC0B78280000803086062130FC002E
:100102007630FD00FD0B8328FC0B832800000800DD
:100112008316031381120112811101148114011536
:0C0122000B118B168B1783128101080053
:10012E0032208A110A128000840AA30A0319A40A33
:08013E00F003031D97280800DF
:100146008312031386092130FC007630FD00FD0B77
:0A015600AA28FC0BAA2800000800EC
:1001600083120313AC012808F1000130F00071087C
:100170000319BE28F00D7010FF3EB8287008AB00C0
:100180002708840070080005F10071080130031D84
:100190000030F0002A08F0060319E6282908003C80
:1001A0000318D6282B202B20A903CE28270884004B
:1001B0002B080005F10071080130031D0030F0002C
:1001C0002A08F0060319E628FF30AC002C08F000DE
:0201D000080025
:1001D200013083120313A2000130831686008312BA
:1001E2008601892022080319F828A320F92839203A
:0401F200F328FA28CC
:02400E007A3FF7
:00000001FF
